:0200000480007A
:100000006F00C004732F2034930F8000630AFF0336
:10001000930F90006306FF03930FB0006302FF038A
:10002000170F0080130F0FFE63040F0067000F000F
:10003000732F203463540F006F004000136E9E53E3
:10004000171F00002320CFFD6FF09FFF732540F1A5
:100050006310050073251030635805000F00F00F82
:10006000130E100073000000130E00009702000032
:10007000938282F973905230735020307350303035
:1000800073504030970200809382C2F7638C020065
:10009000739052109302B01A739022307323203061
:1000A000E39E62F873500030970200009382420191
:1000B00073901234732540F17300203037050080AF
:1000C0009305008097160000938646F823A0A600AB
:1000D0002FA7B6C0B70E0080130E20006310D705FF
:1000E00083A70600B70E0080130E30006398D70375
:1000F0009305F0FF23A006002FA7B6C0930E0000C3
:10010000130E4000631CD70183A70600930E000066
:10011000130E50006394D701631CC0010F00F00F51
:1001200063000E00131E1E00136E1E0073000000FD
:100130000F00F00F130E100073000000731000C0CA
:0401400000000000BB
:1010000000000000000000000000000000000000E0
:1010100000000000000000000000000000000000D0
:1010200000000000000000000000000000000000C0
:1010300000000000000000000000000000000000B0
:081040000000000000000000A8
:040000058000200057
:00000001FF
