:0200000480007A
:100000006F008004732F2034930F80006308FF0378
:10001000930F90006304FF03930FB0006300FF038E
:10002000130F000063040F0067000F00732F2034CC
:1000300063540F006F00400093E19153171F0000BD
:1000400023223FFC6FF09FFF93000000130100008C
:10005000930100001302000093020000130300004C
:100060009303000013040000930400001305000034
:10007000930500001306000093060000130700001C
:100080009307000013080000930800001309000004
:1000900093090000130A0000930A0000130B0000EC
:1000A000930B0000130C0000930C0000130D0000D4
:1000B000930D0000130E0000930E0000130F0000BC
:1000C000930F0000732540F16310050097020000B4
:1000D000938202017390523073500018970200000F
:1000E0009382020273905230B70200809382F2FF33
:1000F0007390023B9302F0017390023A73504030C8
:100100009702000093824201739052307350203066
:100110007350303093010000970200009382C2EECA
:1001200073905230130510001315F501634C050050
:100130000F00F00F930110009308D0051305000085
:100140007300000093020000638A02007390521053
:10015000B7B2000093829210739022307350003037
:10016000970200009382420173901234732540F18C
:10017000730020303705008093050080972600002B
:10018000938646E823A0A6002FA7B6A0B703008059
:10019000930120006310770483A706009303008077
:1001A00093013000639877029305100023A00600A6
:1001B0002FA7B6A09303000093014000631C7700B3
:1001C00083A7060093031000930150006394770007
:1001D000631030020F00F00F638001009391110053
:1001E00093E111009308D00513850100730000000E
:1001F0000F00F00F930110009308D00513050000C5
:1002000073000000731000C0000000000000000038
:1002100000000000000000000000000000000000DE
:1002200000000000000000000000000000000000CE
:0C023000000000000000000000000000C2
:1010000000000000000000000000000000000000E0
:1010100000000000000000000000000000000000D0
:1010200000000000000000000000000000000000C0
:1010300000000000000000000000000000000000B0
:081040000000000000000000A8
:040000058000000077
:00000001FF
