:0200000480007A
:100000006F00C0006F2080276F20402797020000FC
:100010009382C2FF73905230179100001301013593
:10002000F32240F19392C200330151007310013466
:1000300017350000130585A86F20100F832245088F
:100040007390121483204500032185008321C5008D
:100050000322050183224501032385018323C50172
:1000600003240502832445028325C50203260503D4
:1000700083264503032785038327C5030328050437
:1000800083284504032985048329C504032A05051B
:10009000832A4505032B8505832BC505032C0506FF
:1000A000832C4506032D8506832DC506032E0507E3
:1000B000832E4507032F8507832FC5070325850258
:1000C0007300201073110114232211002326310024
:1000D00023284100232A5100232C6100232E710084
:1000E00023208102232291022324A1022326B1028C
:1000F0002328C102232AD102232CE102232EF1025C
:10010000232001052322110523242105232631055F
:1001100023284105232A5105232C6105232E71052F
:1001200023208107232291072324A1072326B10737
:100130002328C107232AD107232CE107232EF10707
:10014000F312011423245100F3220010232051083C
:10015000F322101423225108F322301423245108CF
:10016000F322201423265108130501006F20803E3E
:1010000000000000000000000000000000000000E0
:1010100000000000000000000000000000000000D0
:1010200000000000000000000000000000000000C0
:1010300000000000000000000000000000000000B0
:081040000000000000000000A8
:10200000B3E7C500B367F50093F737003306C500A3
:102010006382070293070500637EC502938515005E
:1020200003C7F5FF93871700A38FE7FEE398C7FE6A
:1020300067800000E37EC5FE930705009385450099
:1020400003A7C5FF9387470023AEE7FEE3E8C7FE7B
:102050006780000067800000B367C50093F7370012
:10206000638207023306C50093F5F50F9307050059
:102070006372C50493871700A38FB7FEE39CC7FE66
:102080006780000093F5F50F1397850033E7E500AF
:10209000931707013306C5003367F700E372C5FEE7
:1020A000930705009387470023AEE7FEE3ECC7FEE6
:1020B000678000006780000083470500638E07008B
:1020C000930705009387170003C70700E31C07FE6B
:1020D0003385A7406780000013050000678000007B
:1020E000130515008347F5FF9385150003C7F5FF1A
:1020F00063880700E386E7FE3385E74067800000DA
:10210000930700006FF05FFF3367B5001377370068
:10211000631407041378C6FF3308050163760507C7
:102120008326050083A705006390F6069307050044
:102130006F00000183A6070003A705006398E6006F
:102140009387470093854500E3E607FF3387A74061
:102150003306E640138507003386C5006F00400153
:10216000938515008347F5FF03C7F5FF639AE700E2
:1021700013051500E396C5FE1305000067800000F7
:102180003385E74067800000930705006FF05FFC30
:10219000930705009385150003C7F5FF9387170084
:1021A000A38FE7FEE31807FE6780000003470500E2
:1021B0009306000293070500631AD70093060700F1
:1021C0009387170003C70700E30CD7FE930657FD5C
:1021D00093F6D60F6382060483C607001306000039
:1021E000638A06041307000093871700131527005E
:1021F000938506FD83C607003305E500131515001A
:102200003387A500E39206FE630406003307E0402F
:10221000130507006780000083C61700130737FD0A
:102220001336170093871700E39E06FA1307000082
:102230006FF09FFD130700006FF09FFD97F6FFFF03
:10224000938646DC23A0A6009357F54123A2F6000F
:1022500097F6FFFF938606DF03A7060083A74600D5
:10226000B367F700E38A07FE130700009307000037
:1022700023A0E60023A2F6006F000000130101FF77
:102280001305903423261100EFF05FFB130101FECC
:102290001307B101930EB100130E9000930870055F
:1022A000130F00039376F5001396C50113554500EF
:1022B0009387080013F8F60F6364DE0093070F009E
:1022C000B38707012300F7001307F7FF3365A60064
:1022D00093D54500E318D7FD8347C100230E0100C5
:1022E0001306C10017F5FFFF1305C5D197F6FFFFD1
:1022F000938646D5B7050101638C07022320F500BC
:10230000130616002322B50003A7060083A7460084
:10231000B367F700E38A07FE13080000834706004F
:102320009308000023A0060123A21601E39807FCEE
:102330001301010267800000B7F7FFFFB306F50045
:1023400037E7030063FEE60E9766000083A6C60A21
:10235000B377F5006384061A03A74600976500006B
:1023600093858509176600000326C60823A0E500AB
:102370006300C70C03A706001355C50013060540EC
:102380001357C700931526001317A7001736000030
:10239000130646C73306B6001367F7012320E6008D
:1023A0007300401017670000130747E51315350049
:1023B0003305A700032705006316070E03A60600D2
:1023C0003707C0FF3387E7002320C50083A64600F8
:1023D0002322D500B7160000B306D700832E0700CE
:1023E000032E4700032387008328C7000328070123
:1023F00003254701832587010326C70123A0D701B1
:1024000023A2C70123A4670023A6170123A807015D
:1024100023AAA70023ACB70023AEC7001307070207
:1024200093870702E31CD7FA0F10000067800000B3
:1024300017670000130707FC232007006FF09FF3C6
:102440009307100497150000938585B017F6FFFFDA
:10245000130646BB97F6FFFF9386C6BE37050101FC
:102460002320F600938515002322A60003A706006B
:1024700083A74600B367F700E38A07FE130800004E
:1024800083C705009308000023A0060123A21601BC
:10249000E39807FC130101FF130530002326110008
:1024A000EFF0DFD99307100497150000938505B06E
:1024B00017F6FFFF130606B597F6FFFF938686B85B
:1024C000370501012320F600938515002322A6007D
:1024D00003A7060083A74600B367F700E38A07FE59
:1024E0001303000083C705009303000023A06600C8
:1024F00023A27600E39807FC6FF0DFF9930710043E
:1025000097150000938505A917F6FFFF130686AF00
:1025100097F6FFFF938606B3370501012320F600E7
:10252000938515002322A60003A7060083A7460073
:10253000B367F700E38A07FE1308000083C70500AE
:102540009308000023A0060123A21601E39807FCCC
:102550006FF05FF48327C508130101FA232C81046F
:10256000232E1104232A9104232821052326310533
:10257000232441052322510523206105232E7103C5
:10258000232C8103232A91032328A1032326B103AB
:1025900013078000130405006386E70E130720006D
:1025A0006380E70613F7B7FF930610006306D700B2
:1025B000130770006392E72C03258408EFF0DFD740
:1025C000130504008320C1050324810583244105EC
:1025D000032901058329C104032A8104832A4104B4
:1025E000032B0104832BC103032C8103832C4103A0
:1025F000032D0103832DC102130101066FD01FA417
:1026000003274508937737006394072CEF07800072
:10261000731030000323070003A7070017160000FC
:10262000130646A59307100497F5FFFF9385859D34
:1026300097F6FFFF938606A1370501016300E304C7
:1026400023A0F5001306160023A2A50003A7060089
:1026500083A74600B367F700E38A07FE1303000071
:10266000834706009303000023A0660023A27600A0
:10267000E39807FC13053000EFF05FBC1305100072
:10268000EFF0DFBB832D850237190000176D0000C6
:10269000130DCDB6173E0000130ECE9637F3FFFF95
:1026A000B708C0FF130A0900976A0000938A8AD40A
:1026B00017680000130848D4B7F603009357C90001
:1026C0009394370033079D00032707006300070E2C
:1026D0009387074093972700B307FE0083A907005D
:1026E00093F709046382070E3377690033041701F7
:1026F00013060A009305040013050700232ED100DA
:10270000232C0101232AC101232861002326110162
:102710002324E100EFF05F9F8328C1000323010120
:10272000032E4101032881018326C10163020506AE
:1027300093F90908032781006384090E93070400B5
:102740003306440103A4070083A3470083A2870044
:1027500083AFC70003AF070183AE470103A587011D
:1027600083A5C70123208700232277002324570055
:102770002326F7012328E701232AD701232CA700CA
:10278000232EB7009387070213070702E39CC7FABB
:10279000B3079D0023A0070017670000032787C524
:1027A000630E07002322F70023A0FA003309490132
:1027B000E316D9F013850D00EFF05FA823A0FA000F
:1027C0002320F8006FF09FFE9307100417160000F7
:1027D0001306868197F5FFFF9385C58297F6FFFF65
:1027E000938646863705010123A0F50013061600DF
:1027F00023A2A50003A7060083A74600B367F7003E
:10280000E38A07FE130800008347060093080000D0
:1028100023A0060123A21601E39807FC6FF09FE5B1
:1028200093071004170600001306467F97E5FFFF85
:102830009385457D97F6FFFF9386C6803705010196
:1028400023A0F5001306160023A2A50003A7060087
:1028500083A74600B367F700E38A07FE130800006A
:10286000834706009308000023A0060123A2160157
:10287000E39807FC6FF01FE09307100417160000A1
:102880001306068297E5FFFF9385C57797E6FFFF5E
:102890009386467B3705010123A0F5001306160039
:1028A00023A2A50003A7060083A74600B367F7008D
:1028B000E38A07FE13080000834706009308000020
:1028C00023A0060123A21601E39807FC6FF09FDA0C
:1028D00093071004170600001306867797E5FFFF9D
:1028E0009385457297E6FFFF9386C675370501010C
:1028F00023A0F5001306160023A2A50003A70600D7
:1029000083A74600B367F700E38A07FE13080000B9
:10291000834706009308000023A0060123A21601A6
:10292000E39807FC6FF01FD5F32740F1639207147B
:10293000130101F6972600009386C66C232E11081A
:10294000232C810893D7C600739007189735000091
:102950009385456B174600001306C66A1357C600D9
:1029600093D7C5001317A7009397A7001367170005
:1029700093E7170023A0F60023AEE5FE97D7BF7FAD
:102980009387877473905710F3270034370EC07FF6
:10299000B387C701739007149307201A73902730E9
:1029A000B7E7010873900730735040309757C07FE6
:1029B00093874765975F0000938FCF64976200000D
:1029C00023ACF2A2B70E08009767C07F9387878277
:1029D0009762000023A0F2A213870F00176F000078
:1029E000130FCF81B705002093072002938EFE03BB
:1029F000130E8E0013D81700B386D701B347F80023
:102A00003303C70193E8F5009396C60093975700E8
:102A10002320D7002322670093F707022320160103
:102A200013078700B367F800938505401306460037
:102A3000E312EFFC130405001306000993050000E0
:102A40001305010023AA0F1EEFF00FE1B707008066
:102A50003304F4001305010023228108EFD00FDEB8
:102A60008320C109032481091301010A6780000042
:102A7000B7F79A0E370608009387F7361306C6FF96
:102A8000B705008033F7C70093F617003307B70088
:102A9000638E06002F20070093D7170033F7C70077
:102AA00093F617003307B700E39606FE03200700EE
:102AB00093D717006FF09FFE97100000938080540B
:102AC0001301A00A2390200083910000930EA00A16
:102AD000130E2000639ED145971000009380805212
:102AE00037B1FFFF130101A0239120008391200043
:102AF000B7BEFFFF938E0EA0130E3000639AD14332
:102B000097100000938000503711EFBE130101AA07
:102B10002392200083A14000B71EEFBE938E0EAA21
:102B2000130E40006396D141971000009380804DB2
:102B300037A1FFFF1301A1002393200083916000C0
:102B4000B7AEFFFF938EAE00130E50006392D13FDD
:102B5000971000009380E04B1301A00A239D20FEF4
:102B60008391A0FF930EA00A130E60006392D13DE3
:102B7000971000009380E04937B1FFFF130101A0D7
:102B8000239E20FE8391C0FFB7BEFFFF938E0EA051
:102B9000130E7000639ED139971000009380604738
:102BA00037110000130101AA239F20FE8391E0FF4B
:102BB000B71E0000938E0EAA130E8000639AD137C1
:102BC000971000009380E04437A1FFFF1301A1009C
:102BD0002390200083910000B7AEFFFF938EAE00DC
:102BE000130E90006396D1359710000093808042B9
:102BF0003751341213018167138200FE2310220221
:102C000083910000B75E0000938E8E67130EA000C4
:102C10006390D133971000009380C03F373100009C
:102C2000130181099380B0FFA393200017120000C5
:102C30001302623E83110200B73E0000938E8E099C
:102C4000130EB0006396D12F130EC00013020000C4
:102C5000B7D0FFFF9380D0CD171100001301813A48
:102C60002310110083110100B7DEFFFF938EDECD2C
:102C70006390D12D1302120093022000E31A52FC3C
:102C8000130ED00013020000B7C0FFFF9380D0CC1A
:102C90001711000013010137130000002311110068
:102CA00083112100B7CEFFFF938EDECC6392D12932
:102CB0001302120093022000E31852FC130EE000EE
:102CC00013020000B7C0FFFF9380C0BC17110000C3
:102CD0001301413313000000130000002312110000
:102CE00083114100B7CEFFFF938ECEBC6392D125F6
:102CF0001302120093022000E31652FC130EF000A0
:102D000013020000B7B0FFFF9380C0BB13000000A8
:102D1000171100001301012F23131100831161000B
:102D2000B7BEFFFF938ECEBB6394D1211302120076
:102D300093022000E31852FC130E0001130200005E
:102D4000B7B0FFFF9380B0AB130000001711000075
:102D50001301412B13000000231411008311810083
:102D6000B7BEFFFF938EBEAB6394D11D130212005A
:102D700093022000E31652FC130E10011302000010
:102D8000B7E0FFFF9380B0AA13000000130000001B
:102D90001711000013010127231511008311A10051
:102DA000B7EEFFFF938EBEAA6394D11913021200EF
:102DB00093022000E31652FC130E200113020000C0
:102DC0001711000013010124B72000009380302365
:102DD0002310110083110100B72E0000938E3E23B3
:102DE0006398D1151302120093022000E31A52FCDB
:102DF000130E30011302000017110000130181208F
:102E0000B71000009380302213000000231111003E
:102E100083112100B71E0000938E3E22639AD111C8
:102E20001302120093022000E31852FC130E40011B
:102E300013020000171100001301C11CB71000009D
:102E400093802012130000001300000023121100D1
:102E500083114100B71E0000938E2E12639AD10D8C
:102E60001302120093022000E31652FC130E5001CD
:102E700013020000171100001301C1181300000015
:102E8000930020112313110083116100930E201170
:102E90006390D10B1302120093022000E31C52FC3A
:102EA000130E6001130200001711000013018115B9
:102EB0001300000093001001130000002314110000
:102EC00083118100930E10016394D1071302120045
:102ED00093022000E31A52FC130E7001130200004B
:102EE000171100001301011213000000130000006D
:102EF000B730000093801000231511008311A1004A
:102F0000B73E0000938E1E006394D103130212009B
:102F100093022000E31652FC37C500001305F5EEBE
:102F2000971500009385050E2393A500631AC00131
:102F300013151E00630005001365150073000000E3
:0C2F40001305100073000000731000C0A7
:102F4C00417373657274696F6E206661696C656438
:102F5C003A2061646472203E3D202831554C203C5F
:102F6C003C203132292026262061646472203C20CA
:102F7C003633202A202831554C203C3C2031322934
:102F8C000A000000417373657274696F6E2066618C
:102F9C00696C65643A206E6F64650A0041737365F1
:102FAC007274696F6E206661696C65643A20757322
:102FBC0065725F6D617070696E675B616464722FBE
:102FCC002831554C203C3C203132295D2E61646403
:102FDC0072203D3D20300A00417373657274696F35
:102FEC006E206661696C65643A2070745B315D5B60
:102FFC00616464722F2831554C203C3C20313229BD
:10300C005D20262030783034300A0000417373651F
:10301C007274696F6E206661696C65643A207074B5
:10302C005B315D5B616464722F2831554C203C3CF4
:10303C00203132295D20262030783038300A0000CB
:10304C00417373657274696F6E206661696C656437
:10305C003A2074662D3E65706320252034203D3D5A
:10306C0020300A00417373657274696F6E2066615B
:10307C00696C65643A202122696C6C6567616C200F
:10308C00696E737472756374696F6E220A00000046
:10309C00417373657274696F6E206661696C6564E7
:1030AC003A202122756E65787065637465642065BD
:0C30BC007863657074696F6E220A000072
:10400000EFBEEFBEEFBEEFBEEFBEEFBEEFBEEFBE48
:04401000EFBEEFBE52
:040000058000200057
:00000001FF
