:0200000480007A
:100000006F00C004732F2034930F8000630AFF0336
:10001000930F90006306FF03930FB0006302FF038A
:10002000170F0000130F0F2E63040F0067000F005F
:10003000732F203463540F006F00400093E19153FD
:10004000171F000023203FFC6FF09FFF930000006C
:10005000130100009301000013020000930200004E
:100060001303000093030000130400009304000036
:10007000130500009305000013060000930600001E
:100080001307000093070000130800009308000006
:100090001309000093090000130A0000930A0000EE
:1000A000130B0000930B0000130C0000930C0000D6
:1000B000130D0000930D0000130E0000930E0000BE
:1000C000130F0000930F0000732540F1631005002B
:1000D000970200009382020173905230735000180F
:1000E000970200009382020273905230B7020080A0
:1000F0009382F2FF7390023B9302F0017390023AF5
:100100007350403097020000938242017390523046
:10011000735020307350303093010000970200007C
:10012000938282EE73905230130510001315F5017F
:10013000634C05000F00F00F930110009308D005E9
:10014000130500007300000093020000638A0200A0
:1001500073905210B7B200009382921073902230C5
:1001600073500030372500001305058073200530DB
:10017000970200009382420173901234732540F17C
:100180007300203093012000000000006F00001376
:10019000B72200009382028073B002303713000050
:1001A0001303038073200330F3230030B3F35300B1
:1001B000631473127350413473504130970200003E
:1001C0009382521473945230F322503093F21200FF
:1001D00063860200736004306F00000073105430B7
:1001E0007350313097020000938282027390123470
:1001F000B72200009382028073B0023037130000F0
:1002000013030380732003307300203073005010F9
:10021000B3F20200B7020C0073B002103373030094
:1002200037030C0073200310F3230010B3F35300C3
:100230006384030673B0021073000012F3220018E7
:10024000000000006F008007730000126F000007BD
:10025000F32200186F0080069702000093820202CA
:10026000739012149302001073A002109302000204
:1002700073B0021073002010000000006F00000433
:1002800097020000938202017390121473002010F1
:100290006F00C0026F004002730000126F00000286
:1002A000730000126F008001F322001800000000AC
:1002B0006F00C0006FF05FFA631030020F00F00FA4
:1002C000638001009391110093E111009308D00520
:1002D00013850100730000000F00F00F9301100060
:1002E0009308D00513050000730000001300000000
:1002F00013000000130000001300000013000000B2
:100300006F0000046FF09FED6FF05FFB6FF01FFB5D
:100310006FF0DFFA6FF09FFA6FF05FFA6FF01FFA7D
:100320006FF0DFF96FF09FF96FF05FF96FF01FF971
:100330006FF0DFF86FF09FF86FF05FF86FF01FF865
:1003400013032000F3222034E39A62F6F3221034E0
:10035000F3233034638E030003D30200B3C363007E
:1003600003D3220013130301B3C36300E39803F420
:1003700017030000130383E1638462061703000080
:10038000130343EC6384620617030000130303ECBA
:1003900063886204170300001303C3EB63826204E3
:1003A00017030000130383ED638862041703000042
:1003B000130303EE6388620417030000130303EEC4
:1003C00063866202170300001303C3ED638A6200B1
:1003D000170300001303C3ED638462006FF01FEE88
:1003E0009382820073901234730020303703100020
:1003F000732003306FF0DFFE3703400073200330BB
:100400006FF01FFE6FF0DFFD731000C000000000F2
:1004100000000000000000000000000000000000DC
:1004200000000000000000000000000000000000CC
:1004300000000000000000000000000000000000BC
:1004400000000000000000000000000000000000AC
:10045000000000000000000000000000000000009C
:10046000000000000000000000000000000000008C
:10047000000000000000000000000000000000007C
:10048000000000000000000000000000000000006C
:10049000000000000000000000000000000000005C
:1004A000000000000000000000000000000000004C
:1004B000000000000000000000000000000000003C
:1004C000000000000000000000000000000000002C
:0804D000000000000000000024
:1010000000000000000000000000000000000000E0
:1010100000000000000000000000000000000000D0
:1010200000000000000000000000000000000000C0
:1010300000000000000000000000000000000000B0
:081040000000000000000000A8
:040000058000000077
:00000001FF
