:0200000480007A
:100000006F00C0006F2080306F20403093000000F0
:10001000130100009301000013020000930200008E
:100020001303000093030000130400009304000076
:10003000130500009305000013060000930600005E
:100040001307000093070000130800009308000046
:100050001309000093090000130A0000930A00002E
:10006000130B0000930B0000130C0000930C000016
:10007000130D0000930D0000130E0000930E0000FE
:10008000130F0000930F000097020000938202F804
:1000900073905230178100001301C1EDF32240F13B
:1000A0009392C2003301510073100134EF201013FA
:1000B00017350000130505936F200074832245084F
:1000C0007390121483204500032185008321C5000D
:1000D0000322050183224501032385018323C501F2
:1000E00003240502832445028325C5020326050354
:1000F00083264503032785038327C50303280504B7
:1001000083284504032985048329C504032A05059A
:10011000832A4505032B8505832BC505032C05067E
:10012000832C4506032D8506832DC506032E050762
:10013000832E4507032F8507832FC50703258502D7
:1001400073002010731101142322110023263100A3
:1001500023284100232A5100232C6100232E710003
:1001600023208102232291022324A1022326B1020B
:100170002328C102232AD102232CE102232EF102DB
:1001800023200105232211052324210523263105DF
:1001900023284105232A5105232C6105232E7105AF
:1001A00023208107232291072324A1072326B107B7
:1001B0002328C107232AD107232CE107232EF10787
:1001C000F312011423245100F322001023205108BC
:1001D000F322101423225108F3223014232451084F
:1001E000F322201423265108130501006F20803AC2
:1010000000000000000000000000000000000000E0
:1010100000000000000000000000000000000000D0
:1010200000000000000000000000000000000000C0
:1010300000000000000000000000000000000000B0
:081040000000000000000000A8
:10200000B367B500B3E7C70093F73700B306C50061
:10201000638407023386C50093070500637ED502FB
:1020200003C705009385150093871700A38FE7FE6C
:10203000E398C5FE67800000E37ED5FE93070500A8
:1020400003A70500938747009385450023AEE7FE6D
:10205000E3E8D7FE6780000067800000130101FFFE
:10206000B367C500232481002326110093F73700AE
:10207000130405003307C500638207026376E50099
:1020800093F5F50FEFF09FFD8320C10013050400C9
:1020900003248100130101016780000093F5F50F0F
:1020A00093978500B3E7B70093960701B3E6F60070
:1020B000E37CE5FC930705009387470023AED7FE3A
:1020C000E3ECE7FE8320C100130504000324810034
:1020D000130101016780000083470500638E07003C
:1020E0009307050003C7170093871700E31C07FE3B
:1020F0003385A7406780000013050000678000005B
:1021000083470500938515001305150003C7F5FFE8
:1021100063880700E386E7FE3385E74067800000B9
:10212000930700006FF05FFFB367B50093F73700C8
:10213000639E07021378C6FF330805016378050321
:10214000930705006F0000019387470093854500C2
:1021500063F8070183A6070003A70500E386E6FEF0
:102160003385A7403306A640138507003386C50094
:102170006F00400103C705008347F5FF93851500F5
:10218000639AE70013051500E396C5FE13050000EA
:10219000678000003385E7406780000093070500F3
:1021A00003C705009387170093851500A38FE7FEEB
:1021B000E31807FE6780000003470500930600024E
:1021C000930705006318D70003C71700938717000C
:1021D000E30CD7FE9306D0026300D7069306B00245
:1021E0006300D70483C607009305000063820604DA
:1021F000130500009387170013172500138606FDAB
:1022000083C607003307A700131717003305E6003E
:10221000E39206FE638005023305A040678000005C
:1022200083C617009305000093871700E39206FC0E
:10223000130500006780000083C617009305100097
:1022400093871700E39606FA130500006FF09FFED0
:10225000834505006380050697F6FFFF938686DABF
:1022600017F6FFFF130606DE03A7060083A7460046
:1022700013880500130515003367F700B70801013F
:1022800063020702130700002320E6009307000003
:102290002322F60003A7060083A746003367F70052
:1022A000E31207FE23A0060123A2160183450500C1
:1022B000E39C05FA6780000097F6FFFF938686D4BB
:1022C00003A7060083A74600130805009358F541AD
:1022D0003367F7006306070217F6FFFF130686D67B
:1022E000130700002320E600930700002322F600D6
:1022F00003A7060083A746003367F700E31207FE33
:1023000023A0060123A216016F000000130101FFA4
:102310001305903423261100EFF01FFA130101FE7C
:102320001306C1001307B101130390006F00800072
:10233000138707009377F500B337F300B307F04036
:1023400093F777029376F50093870703B387F60038
:102350002300F7009396C501135545009307F7FF37
:1023600033E5A60093D54500E314E6FC0345C10020
:10237000230E0100630205069305060097F6FFFF92
:10238000938646C817F6FFFF1306C6CB03A70600C1
:1023900083A7460013080500938515003367F700EF
:1023A000B708010163020702130700002320E600BB
:1023B000930700002322F60003A7060083A7460028
:1023C0003367F700E31207FE03C5050023A00601EB
:1023D00023A21601E31C05FA130101026780000025
:1023E000130101FF37F8FFFF232611003307050112
:1023F000B7E703006378F7141357C5009306074047
:1024000017360000130606C093972600B307F600A0
:1024100083A70700337505016390070E97550000E9
:10242000938585BE03A8050063020814832748002E
:102430009758000083A808BD23A0F500638E170FEE
:102440008327080093982600B308160193D7C70086
:102450009397A70013E3F70D93E5F70123A0680016
:1024600073000512972700009387C7B91317370029
:10247000B387E70003A707006314071003270800CA
:10248000B708040023A0E7000327480023A2E700C1
:10249000F3A80810B707C0FFB307F500371800000E
:1024A000130705003388070103AF070083AE470019
:1024B00003AE870003A3C7002320E7012322D7012F
:1024C0002324C70123266700938707011307070109
:1024D000E39C07FD7390081093972600B306F6005F
:1024E00023A0B600730005120F1000008320C10066
:1024F000130101016780000013F70704630A070254
:1025000013F70708631A07041307F00093E7070897
:102510006394E50493962600B306D60023A0F60044
:10252000730005128320C1001301010167800000C0
:1025300093E707046FF01FFE9757000023A407AC32
:102540006FF01FF0171500001305C58AEFF05FD07C
:1025500013053000EFF05FD6171500001305C58D89
:10256000EFF01FCF13053000EFF01FD51715000057
:1025700013050591EFF0DFCD13053000EFF0DFD349
:102580001715000013054591EFF09FCC130530009F
:10259000EFF09FD28325C508130101FB232481049A
:1025A000232611042322910423202105232E310305
:1025B000232C4103232A510323286103232671037B
:1025C00023248103232291032320A103232EB1017D
:1025D0009307800013040500638AF5109307200019
:1025E0006380F506938745FF130710006376F700B5
:1025F0009307F0006392F51C03258408EFF05FDE7B
:1026000013050400032481048320C10483244104AE
:10261000032901048329C103032A8103832A410377
:10262000032B0103832BC102032C8102832C410263
:10263000032D0102832DC101130101056FD01FA8D5
:10264000032745089377370063980708EF07800052
:10265000731030000327070083A70700630AF706FB
:1026600013051004971500009385C58697F6FFFFA4
:102670009386469917F6FFFF1306C69C03A706002C
:1026800083A7460013080500938515003367F700FC
:10269000B708010163020702130700002320E600C8
:1026A000930700002322F60003A7060083A7460035
:1026B0003367F700E31207FE03C5050023A00601F8
:1026C00023A21601E31C05FA13053000EFF0DFBE6C
:1026D00013051000EFF05FBE171500001305C58845
:1026E000EFF01FB713053000EFF01FBD032985027F
:1026F000371C0000972400009384C490973B00008F
:10270000938B4B90370B0400B70AC0FF975D000016
:10271000938D4D8F175A0000130A0A8FB7F90300E3
:102720006F0080012322F70023A0FD00B7170000EF
:10273000330CFC00630E3C0B9357CC001394370012
:102740003387840003270700E30207FE93870740CF
:1027500093972700B387FB0083AC070093F70C0423
:10276000638E0706732D0B1037160000B3055C014E
:1027700013050C002326B100EFF01F9B630E05002C
:1027800093FC0C088325C10063800C0437160000FD
:1027900013050C00EFF0DF86B387840073100D1073
:1027A00003A70D0023A00700E31E07F623A0FD00EA
:1027B0002320FA006FF09FF7170500001305057D31
:1027C000EFF01FA96FF05FF0170500001305857685
:1027D000EFF01FA813053000EFF01FAE1705000043
:1027E00013050572EFF0DFA613053000EFF0DFAC44
:1027F00013050900EFF05FACF32740F1639607166D
:1028000017460000130606809357C600130101F611
:102810009397A700232E1108232C810897250000E9
:102820009385457E93E7170023A0F500B7070020A6
:1028300093D6C500370700809387F70C232EF6FE4A
:10284000B3E7E60073900718F3260018639ED716C7
:10285000130405001347F7FF9307F00197020000E8
:1028600093824201F39252307310073B7390073A00
:102870007390523097E7BF7F9387078D73905710FF
:10288000F3270034B708C07FB3871701739007148C
:10289000B7B700009387071073902730B7E70100A0
:1028A0009387076073900730735040309727C07F3D
:1028B0009387C794174700002328F7749727C07F92
:1028C0009387C7B217470000232EF772370308001B
:1028D0001727000013078792172E0000130E8EB1E2
:1028E0009307E000930500001303F3039388880027
:1028F0001396F50193D61700B366D60033866700AA
:10290000B3C7F600330817011316C6009397570094
:102910002320C7002322070193F70702130787002C
:10292000B3E7F60093D51500E314EEFC1306000997
:1029300093050000130501009727000023AA07AAAA
:10294000EFF0CFF1B70700803304F4001305010066
:1029500023228108EFD08FF68320C1090324810947
:102960001301010A67800000B707DD0D3706080074
:102970009387D7EB130700001306C6FF37080080C4
:10298000370500406F00C0022FA006009315F70125
:1029900093D61700B3E6D500B3C7D7009397E701E6
:1029A000B375F500135717009387060033E7E5006A
:1029B000B3F6C70093F51700B3860601E39605FC4E
:1029C00003A006006FF09FFC170500001305C55E0D
:1029D000EFF01F8813053000EFF01F8E67800000B6
:1029E0007310300093012000170500001305856166
:1029F0000720050087204500072185008326C500A4
:102A0000531500C0F3151000130610006314D53CD5
:102A10006392C53C93013000170500001305855FE4
:102A20000720050087204500072185008326C50073
:102A3000531500C0F315100013060000631CD538B1
:102A4000639AC53893014000170500001305855DA2
:102A50000720050087204500072185008326C50043
:102A6000531500C0F3151000130610006314D5367B
:102A70006392C53693015000170500001305855B6E
:102A80000720050087204500072185008326C50013
:102A9000531500C0F315100013061000631CD53247
:102AA000639AC5329301600017050000130585592C
:102AB0000720050087204500072185008326C500E3
:102AC000531500C0F3151000130600006314D53031
:102AD0006392C530930170001705000013058557F8
:102AE0000720050087204500072185008326C500B3
:102AF000531500C0F315100013061000631CD52CED
:102B0000639AC52C930180001705000013058555B5
:102B10000720050087204500072185008326C50082
:102B2000531500C0F3151000130600016314D52AD5
:102B30006392C52A93019000170500001305855381
:102B40000720050087204500072185008326C50052
:102B5000531500C0F315100013060001631CD526A1
:102B6000639AC5269301C00017050000130585511F
:102B70000720050087204500072185008326C50022
:102B8000531510C0F3151000130600016314D5246B
:102B90006392C5249301D000170500001305854FEB
:102BA0000720050087204500072185008326C500F2
:102BB000531510C0F315100013060001631CD52037
:102BC000639AC5209301E000170500001305854DA9
:102BD0000720050087204500072185008326C500C2
:102BE000531510C0F3151000130610006314D51E02
:102BF0006392C51E9301F000170500001305854B75
:102C00000720050087204500072185008326C50091
:102C1000531510C0F315100013061000631CD51ACD
:102C2000639AC51A93010001170500001305854931
:102C30000720050087204500072185008326C50061
:102C4000531510C0F3151000130600006314D518B7
:102C50006392C518930110011705000013058547FD
:102C60000720050087204500072185008326C50031
:102C7000531510C0F315100013061000631CD51473
:102C8000639AC514930120011705000013058545BB
:102C90000720050087204500072185008326C50001
:102CA000531510C0F3151000130600016314D5125C
:102CB0006392C51293013001170500001305854387
:102CC0000720050087204500072185008326C500D1
:102CD000531510C0F315100013060000631CD50E29
:102CE000639AC50E970000009380C04187A0000042
:102CF000D3F000C0B70300809383F3FF9301A002D9
:102D0000639A700C970000009380C03F87A08000FA
:102D1000D3F000C0B70300809301C002639C700A27
:102D2000970000009380003E87A04000D3F000C0D1
:102D3000B70300809383F3FF93014003639C700803
:102D4000970000009380003C87A0C000D3F000C033
:102D5000B70300809383F3FF93016003639C7006C5
:102D6000970000009380003A87A00000D3F010C0C5
:102D70009303F0FF9301E003639E7004970000004B
:102D80009380403887A04000D3F010C09303F0FF39
:102D90009301F003639070049700000093808036E5
:102DA00087A08000D3F010C09303000093010004BB
:102DB00063927002970000009380C03487A0C00027
:102DC000D3F010C09303F0FF9301100463947000DC
:102DD000631A300013951100630005001365150098
:102DE000730000001305100073000000731000C092
:102DF000417373657274696F6E206661696C656496
:102E00003A2061646472203E3D202831554C203CBC
:102E10003C203132292026262061646472203C2027
:102E20003633202A202831554C203C3C2031322991
:102E30000A000000417373657274696F6E206661E9
:102E4000696C65643A20212870745B315D5B616454
:102E500064722F2831554C203C3C203132295D20B2
:102E6000262030783038302920262620636175737B
:102E700065203D3D203078660A000000417373658F
:102E80007274696F6E206661696C65643A206E6F5A
:102E900064650A00417373657274696F6E206661C0
:102EA000696C65643A20757365725F6D61707069F5
:102EB0006E675B616464722F2831554C203C3C2066
:102EC0003132295D2E61646472203D3D20300A005C
:102ED000417373657274696F6E206661696C6564B5
:102EE0003A202122696C6C6567616C20696E73748D
:102EF00072756374696F6E220A0000004173736516
:102F00007274696F6E206661696C65643A207074D2
:102F10005B315D5B616464722F2831554C203C3C11
:102F2000203132295D20262030783034300A0000EC
:102F3000417373657274696F6E206661696C656454
:102F40003A2070745B315D5B616464722F28315587
:102F50004C203C3C203132295D202620307830380E
:102F6000300A0000417373657274696F6E20666188
:102F7000696C65643A2074662D3E65706320252077
:102F800034203D3D20300A00417373657274696FCF
:102F90006E206661696C65643A202122756E6578E1
:102FA00070656374656420657863657074696F6EBD
:102FB000220A0000417373657274696F6E20666146
:102FC000696C65643A202122756E737570706F723A
:102FD0007465642073617470206D6F6465220A00EB
:10300000CDCC8CBF0000000000000000FFFFFFFFE0
:10301000000080BF0000000000000000FFFFFFFF75
:10302000666666BF000000000000000000000000AF
:103030006666663F0000000000000000000000001F
:103040000000803F000000000000000001000000C0
:10305000CDCC8C3F0000000000000000010000000B
:103060005ED032CF000000000000000000000080B1
:103070005ED0324F0000000000000000FFFFFF7F25
:10308000000040C000000000000000000000000040
:10309000000080BF000000000000000000000000F1
:1030A000666666BF0000000000000000000000002F
:1030B0006666663F0000000000000000000000009F
:1030C0000000803F00000000000000000100000040
:1030D000CDCC8C3F0000000000000000010000008B
:1030E0005ED032CF000000000000000000000000B1
:1030F0005ED0324F0000000000000000005ED0B241
:10310000FFFFFFFFFFFFFF7F000080FF0000807FC9
:10311000FFFFFFFFFFFFFFFFFFFFFFFFFFFFFF7F3F
:10312000000000000000F0FF000000000000F07F41
:040000058000000077
:00000001FF
