:0200000480007A
:100000006F00C004732F2034930F8000630AFF0336
:10001000930F90006306FF03930FB0006302FF038A
:10002000170F0080130F0FFE63040F0067000F000F
:10003000732F203463540F006F004000136E9E53E3
:10004000171F00002320CFFD6FF09FFF732540F1A5
:100050006310050073251030634805000F00F00F92
:10006000130E100073000000130E00009702000032
:10007000938282F973905230735020307350303035
:1000800073504030970200809382C2F7638C020065
:10009000739052109302B01A739022307323203061
:1000A000E39E62F873500030970200009382420191
:1000B00073901234732540F17300203093001000C8
:1000C00013010000B3912000930E1000130E2000C6
:1000D000639CD15F9300100013011000B3912000C6
:1000E000930E2000130E30006390D15F9300100038
:1000F00013017000B3912000930E0008130E40000E
:100100006394D15D930010001301E000B3912000CF
:10011000B74E0000130E50006398D15B930010009F
:100120001301F001B39120009B0E1000939EFE017D
:10013000130E6000639AD1599300F0FF1301000081
:10014000B3912000930EF0FF130E7000639ED15701
:100150009300F0FF13011000B3912000930EE0FF15
:10016000130E80006392D1579300F0FF13017000CB
:10017000B3912000930E00F8130E90006396D155B2
:100180009300F0FF1301E000B3912000B7CEFFFF12
:10019000130EA000639AD1539300F0FF1301F001F6
:1001A000B3912000B70E0080130EB000639ED151B2
:1001B000B72021219B80101213010000B391200071
:1001C000B72E21219B8E1E12130EC000639ED14FAD
:1001D000B72021219B80101213011000B391200041
:1001E000B74E42429B8E2E24130ED000639ED14DFB
:1001F000B72021219B80101213017000B3912000C1
:10020000B71E09019B8E9E90939ECE00938E0E0882
:10021000130EE000639AD14BB72021219B8010126E
:100220001301E000B3912000B72E21219B8E1E12F6
:10023000939EEE00130EF0006398D149B720212160
:100240009B8010121301F001B3912000B72E2121E1
:100250009B8E1E12939EFE01130E00016396D147E2
:10026000B72021219B801012130100FCB3912000C4
:10027000B72E21219B8E1E12130E10016396D145BD
:10028000B72021219B801012130110FCB391200094
:10029000B74E42429B8E2E24130E20016396D1430B
:1002A000B72021219B801012130170FCB391200014
:1002B000B71E09019B8E9E90939ECE00938E0E08D2
:1002C000130E30016392D141B72021219B8010127F
:1002D0001301E0FCB3912000B72E21219B8E1E124A
:1002E000939EEE00130E40016390D13FB720212171
:1002F0009B8010121301F0FFB39120009B0EF0FFC2
:10030000939EFE03130E50016390D13D93001000A5
:100310001301F003B39120009B0EF0FF939EFE03A8
:10032000130E20036392D13B9300F0FF1301700280
:10033000B39120009B0EF0FF939E7E02130E3003BC
:100340006394D139B72021219B8010121301B00290
:10035000B3912000B72E01009B8E1E12939EBE0209
:10036000130E40036392D137930010001301700005
:10037000B3902000930E0008130E60016396D035F1
:10038000930010001301E00033912000B74E0000ED
:10039000130E7001631AD13393003000B390100034
:1003A000930E8001130E80016390D033130200007E
:1003B0009300100013017000B3912000138301001B
:1003C0001302120093022000E31452FE930E000861
:1003D000130E9001631AD32F130200009300100034
:1003E0001301E000B391200013000000138301000B
:1003F0001302120093022000E31252FEB74E0000D7
:10040000130EA0016312D32D1302000093001000FD
:100410001301F001B391200013000000130000004D
:10042000138301001302120093022000E31052FE16
:100430009B0E1000939EFE01130EB0016316D3298C
:10044000130200009300100013017000B39120000C
:100450001302120093022000E31652FE930E0008CE
:10046000130EC0016392D127130200009300100005
:100470001301E00013000000B391200013021200EA
:1004800093022000E31452FEB74E0000130ED00179
:10049000639CD12313020000930010001301F001AC
:1004A0001300000013000000B3912000130212009B
:1004B00093022000E31252FE9B0E1000939EFE0159
:1004C000130EE0016392D12113020000930010008B
:1004D0001300000013017000B391200013021200FA
:1004E00093022000E31452FE930E0008130EF00155
:1004F000639CD11D13020000930010001300000044
:100500001301E00013000000B39120001302120059
:1005100093022000E31252FEB74E0000130E0002B9
:100520006394D11B1302000093001000130000001D
:10053000130000001301F001B39120001302120018
:1005400093022000E31252FE9B0E1000939EFE01C8
:10055000130E1002639AD1171302000013017000EA
:1005600093001000B39120001302120093022000A8
:10057000E31652FE930E0008130E20026396D11567
:10058000130200001301E0009300100013000000AC
:10059000B39120001302120093022000E31452FED4
:1005A000B74E0000130E30026390D1131302000007
:1005B0001301F0019300100013000000130000006D
:1005C000B39120001302120093022000E31252FEA6
:1005D0009B0E1000939EFE01130E40026396D10FF6
:1005E00013020000130170001300000093001000BC
:1005F000B39120001302120093022000E31452FE74
:10060000930E0008130E50026390D10D13020000E8
:100610001301E0001300000093001000130000001D
:10062000B39120001302120093022000E31252FE45
:10063000B74E0000130E60026398D1091302000048
:100640001301F001130000001300000093001000DC
:10065000B39120001302120093022000E31252FE15
:100660009B0E1000939EFE01130E7002639ED10537
:100670009300F00033111000930E0000130E80025F
:100680006314D1059300000233910000930E000221
:10069000130E9002631AD103B3100000930E0000F2
:1006A000130EA0026392D0039300004037110000A4
:1006B0001B01018033902000930E0000130EB00246
:1006C0006314D001631CC0010F00F00F63000E0023
:1006D000131E1E00136E1E00730000000F00F00FAB
:1006E000130E100073000000731000C00000000023
:1006F00000000000000000000000000000000000FA
:0407000000000000F5
:1010000000000000000000000000000000000000E0
:1010100000000000000000000000000000000000D0
:1010200000000000000000000000000000000000C0
:1010300000000000000000000000000000000000B0
:081040000000000000000000A8
:040000058000200057
:00000001FF
