:0200000480007A
:100000006F00C0006F2040266F200026970200007E
:100010009382C2FF7390523017A100001301816BCD
:10002000F32240F19392C200330151007310013466
:10003000173500001305859F6F205000833285100F
:1000400073901214833085000331050183318501DB
:1000500003320502833285020333050383338503AC
:10006000033405048334850483358505033605068A
:100070008336850603370507833785070338050868
:10008000833885080339050983398509033A050A48
:10009000833A850A033B050B833B850B033C050C28
:1000A000833C850C033D050D833D850D033E050E08
:1000B000833E850E033F050F833F850F03350505FE
:1000C000730020107311011423341100233C3100FC
:1000D000233041022334510223386102233C710250
:1000E00023308104233491042338A104233CB10438
:1000F0002330C1062334D1062338E106233CF10620
:10010000233001092334110923382109233C310903
:100110002330410B2334510B2338610B233C710BEB
:100120002330810D2334910D2338A10D233CB10DD3
:100130002330C10F2334D10F2338E10F233CF10FBB
:10014000F312011423385100F32200102330511010
:10015000F322101423345110F32230142338511099
:10016000F3222014233C5110130501006F20803727
:1010000000000000000000000000000000000000E0
:1010100000000000000000000000000000000000D0
:1010200000000000000000000000000000000000C0
:1010300000000000000000000000000000000000B0
:081040000000000000000000A8
:10200000B3E7C500B367F50093F777003306C50063
:102010006382070293070500637EC502938515005E
:1020200003C7F5FF93871700A38FE7FEE398C7FE6A
:1020300067800000E37EC5FE930705009385850059
:1020400003B785FF9387870023BCE7FEE3E8C7FE5D
:102050006780000067800000B367C50093F77700D2
:10206000638207023306C50093F5F50F9307050059
:102070006376C50493871700A38FB7FEE39CC7FE62
:102080006780000013F7F50F931787003367F70099
:10209000931707013367F700931707023306C5004C
:1020A0003367F700E37EC5FC93070500938787003D
:1020B00023BCE7FEE3ECC7FE6780000067800000FA
:1020C00083470500638E0700930705009387170079
:1020D00003C70700E31C07FE3385A74067800000A5
:1020E0001305000067800000130515008347F5FF06
:1020F0009385150003C7F5FF63880700E386E7FEB5
:102100003B85E74067800000930700006FF05FFFAA
:102110003367B5001377770063140704137886FFDD
:1021200033080501637605078336050083B705008C
:102130006390F606930705006F00000183B6070061
:1021400003B705006398E6009387870093858500B1
:10215000E3E607FF3387A7403306E6401385070011
:102160003386C5006F004001938515008347F5FF56
:1021700003C7F5FF639AE70013051500E396C5FE54
:1021800013050000678000003B85E7406780000082
:10219000930705006FF05FFC93070500938515001A
:1021A00003C7F5FF93871700A38FE7FEE31807FE29
:1021B00067800000034705009306000293070500AF
:1021C000631AD700930607009387170003C7070019
:1021D000E30CD7FE9B0657FD93F6D60F63820604E9
:1021E00083C6070013060000638A06041307000075
:1021F00093871700131527009B8506FD83C60700EC
:102200003305E500131515003387A500E39206FE9C
:10221000630406003307E0401305070067800000F1
:1022200083C617001B0737FD133617009387170067
:10223000E39E06FA130700006FF09FFD13070000EE
:102240006FF09FFD97F2FFFF23BEA2DA97F7FFFF23
:1022500083B747DFE38C07FE97F7FFFF938787DE9F
:1022600023B007006F000000130101FF1305903435
:1022700023341100EFF01FFD130101FE130771015C
:102280009308710013089000930500031303700571
:102290009376F50013860600938705006374D800D3
:1022A00093070300BB87C7002300F7001307F7FF5E
:1022B00013554500E31E17FD834781009306101058
:1022C000230C01001307810097F5FFFF938585D349
:1022D00017F6FFFF130606D79396060363840702DB
:1022E000B3E7D7001307170023B0F50097F7FFFFF8
:1022F00083B747D5E38C07FE8347070023300600EA
:10230000E39007FE1301010267800000B7F7FFFFAB
:10231000B306F50037E7030063FEE60C977600008E
:1023200083B6C64CB377F5006388061603B78600FC
:10233000977500009385854B177600000336864A13
:1023400023B0E5006300C70A03B706001355C500B4
:10235000130605601357C700931536001317A7001F
:1023600017260000130606CA3306B6001367F701E6
:102370002330E6007300401017770000130787072B
:10238000131545003305A700033705006310070C3C
:1023900003B606003707E0FF3387E7002330C500A8
:1023A00083B686002334D500B7160000B306D700E5
:1023B000033807000335870083350701033687019B
:1023C00023B0070123B4A70023B8B70023BCC7007C
:1023D0001307070293870702E31CD7FC0F100000C6
:1023E00067800000177700001307C73F23300700FE
:1023F0006FF09FF593051010930710041716000057
:102400001306C68C97F6FFFF9386C6BF17F7FFFF2C
:10241000130747C393950503B3E7B70013061600E8
:1024200023B0F60097F7FFFF83B7C7C1E38C07FE21
:102430008347060023300700E39007FE130101FFE6
:102440001305300023341100EFF0DFDF9305101087
:1024500093071004171600001306468D97F6FFFF2A
:10246000938646BA17F7FFFF1307C7BD9395050379
:10247000B3E7B7001306160023B0F60097F7FFFF87
:1024800083B747BCE38C07FE834706002330070071
:10249000E39007FE6FF09FFA930510109307100466
:1024A000171600001306068797F6FFFF938686B57A
:1024B00017F7FFFF130707B993950503B3E7B700B5
:1024C0001306160023B0F60097F7FFFF83B787B710
:1024D000E38C07FE8347060023300700E39007FEE6
:1024E0006FF0DFF583378511130101F8233881067A
:1024F000233C11062334910623302107233C310568
:10250000233841052334510523306105233C7103F1
:1025100023388103233491032330A103233CB101E9
:1025200013078000130405006380E70E13072000E3
:102530006380E70613F7B7FF930610006306D70022
:10254000130770006390E72603350411EFF01FDCDA
:1025500013050400833081070334010783348106A7
:102560000339010683398105033A0105833A810461
:10257000033B0104833B8103033C0103833C810251
:10258000033D0102833D8101130101086FD01FABA0
:102590000337851093773700639C0724EF0780008B
:1025A000731030000328070003A5070093061010DE
:1025B00093071004171700001307C78497F5FFFF50
:1025C000938545A417F6FFFF1306C6A79396060347
:1025D0006308A802B3E7D7001307170023B0F5007C
:1025E00097F7FFFF83B707A6E38C07FE8347070033
:1025F00023300600E39007FE13053000EFF09FC480
:1026000013051000EFF01FC4832B050537190000D8
:10261000177B0000130B0BDE972600009386869E27
:10262000B7FDFFFF370DE0FF130A0900977A00009E
:10263000938A4A1B977C0000938C4C1B37FC030049
:102640009357C9009394470033079B000337070053
:102650006300070A9387076093973700B387F600F4
:1026600083B9070093F709046382070A3377B90136
:102670003304A70113060A0093050400130507009D
:102680002334D1002330E100EFF09FA8833681008E
:102690006302050493F9090803370100638E090AF0
:1026A000930704003306440183B8070003B887008A
:1026B00003B5070183B587012330170123340701D0
:1026C0002338A700233CB7009387070213070702AC
:1026D000E39CC7FCB3079B0023B0070017770000FB
:1026E00003374710630E07002334F70023B0FA00C6
:1026F00033094901E31689F513850B00EFF09FB408
:1027000023B0FA0023B0FC006FF09FFE13071010F7
:1027100093071004970600009386466597F5FFFF20
:102720009385458E17F6FFFF1306C691131707030F
:10273000B3E7E7009386160023B0F50097F7FFFF95
:1027400083B74790E38C07FE83C70600233006005B
:10275000E39007FE6FF05FEA130710109307100471
:10276000970600009386066497F5FFFF9385858999
:1027700017F6FFFF1306068D13170703B3E7E700ED
:102780009386160023B0F50097F7FFFF83B7878B7A
:10279000E38C07FE83C7060023300600E39007FEA4
:1027A0006FF09FE5130710109307100497060000C1
:1027B0009386466897F5FFFF9385C58417F6FFFF5C
:1027C0001306468813170703B3E7E700938616003E
:1027D00023B0F50097F7FFFF83B7C786E38C07FEAA
:1027E00083C7060023300600E39007FE6FF0DFE0AA
:1027F0001307101093071004970600009386065ED7
:1028000097F5FFFF9385058017F6FFFF1306868374
:1028100013170703B3E7E7009386160023B0F5000C
:1028200097F7FFFF83B70782E38C07FE83C7060095
:1028300023300600E39007FE6FF01FDCF32740F122
:10284000639E0716130101ED171300001303837B2A
:1028500023341112233081129357C3007390071849
:10286000973700009387077A1728000013088879A4
:102870009748000093880879175600001306867859
:1028800093D7C7009355C8009356C60013D7C80006
:102890009397A70093E717009395A5009396A6003A
:1028A0001317A700130EF0BF93E5150093E616006B
:1028B00013671700131E5E01233CF8FE97E7FFFF26
:1028C000938787802330B30023BCD8FE2330E800F1
:1028D000B387C70173905710F3270034B387C7013C
:1028E000739007149307201A73902730B7E70109F4
:1028F0007390073073504030976F0000938F8F7044
:10290000B387CF011387073E9772000023B0F2EE22
:102910009772000023B8E2EC93860F00177F000047
:10292000130F4FADB70500209307B003B70E080093
:10293000130E0E011B87F703131707021BD817008E
:1029400013570702B347F8003307D7013383C60193
:1029500093E8F5001317C7009B97570023B0E600D4
:1029600023B4660093F7070223301601938606010D
:10297000B367F8009385054013068600E31CDFFA71
:10298000130405001306001293050000130501004F
:1029900023B40F3EEFF04FECB70700803304F40090
:1029A0001305010023348110EFD04FE983308112E9
:1029B000033401121301011367800000B76776002A
:1029C000B70508009B87B7EF9B85C5FF33F7B700B6
:1029D00013061000131707021316F6011357070208
:1029E00093F617009397070293D707023307C700A0
:1029F000638606022F20070093D7170033F7B7002E
:102A0000131707021357070293F61700939707024D
:102A100093D707023307C700E39E06FC0320070095
:102A200093D717006FF09FFD970000009380805DA3
:102A300083D10000930EF00F130E20006396D12770
:102A4000970000009380005C83D12000B70E010046
:102A50009B8E0EF0130E30006398D1259700000076
:102A60009380405A83D14000B71E00009B8E0EFF1A
:102A7000130E4000639AD123970000009380805882
:102A800083D16000B7FE00009B8EFE00130E500045
:102A9000639CD121970000009380205783D1A0FF31
:102AA000930EF00F130E60006390D1219700000089
:102AB0009380A05583D1C0FFB70E01009B8E0EF00E
:102AC000130E70006392D11F970000009380E053B3
:102AD00083D1E0FFB71E00009B8E0EFF130E800017
:102AE0006394D11D970000009380205283D1000091
:102AF000B7FE00009B8EFE00130E90006396D11B64
:102B00009700000093800050938000FE83D1000264
:102B1000930EF00F130EA0006398D11997000000D8
:102B20009380404E9380B0FF83D17000B70E0100B8
:102B30009B8E0EF0130EB0006398D117130EC000D9
:102B400013020000970000009380E04B83D1200027
:102B500013830100B71E00009B8E0EFF6316D31572
:102B60001302120093022000E31E52FC130ED00049
:102B700013020000970000009380004983D12000D9
:102B80001300000013830100B7FE00009B8EFE00BF
:102B9000631CD3111302120093022000E31C52FCA9
:102BA000130EE000130200009700000093808045A0
:102BB00083D12000130000001300000013830100E4
:102BC000B70E01009B8E0EF06310D30F130212009C
:102BD00093022000E31A52FC130EF00013020000CF
:102BE000970000009380204283D12000B71E000090
:102BF0009B8E0EFF639AD10B1302120093022000EA
:102C0000E31052FE130E00011302000097000000B3
:102C10009380803F1300000083D12000B7FE0000A6
:102C20009B8EFE006392D1091302120093022000D2
:102C3000E31E52FC130E1001130200009700000067
:102C40009380403C130000001300000083D120005B
:102C5000B70E01009B8E0EF06398D105130212008F
:102C600093022000E31C52FC9701000093818139FC
:102C700003D1010013012000930E2000130E200148
:102C80006314D103970100009381C13703D1010080
:102C90001300000013012000930E2000130E3001DA
:102CA0006314D101631AC00113151E0063000500EF
:102CB0001365150073000000130510007300000079
:042CC000731000C0CD
:102CC800417373657274696F6E206661696C6564BF
:102CD8003A2061646472203E3D202831554C203CE6
:102CE8003C203132292026262061646472203C2051
:102CF8003633202A202831554C203C3C20313229BB
:102D08000A00000000000000417373657274696F67
:102D18006E206661696C65643A206E6F64650A00AE
:102D2800417373657274696F6E206661696C65645E
:102D38003A20757365725F6D617070696E675B616B
:102D48006464722F2831554C203C3C203132295D77
:102D58002E61646472203D3D20300A0000000000AE
:102D6800417373657274696F6E206661696C65641E
:102D78003A2070745B335D5B616464722F2831554F
:102D88004C203C3C203132295D20262030783034DC
:102D9800300A000000000000417373657274696FA7
:102DA8006E206661696C65643A2070745B335D5BA4
:102DB800616464722F2831554C203C3C2031322903
:102DC8005D20262030783038300A000000000000EE
:102DD800417373657274696F6E206661696C6564AE
:102DE8003A2074662D3E65706320252034203D3DD1
:102DF80020300A0000000000417373657274696F27
:102E08006E206661696C65643A202122696C6C6584
:102E180067616C20696E737472756374696F6E2272
:102E28000A00000000000000417373657274696F46
:102E38006E206661696C65643A202122756E65783A
:102E480070656374656420657863657074696F6E16
:082E5800220A00000000000046
:08300000FF0000FFF00F0FF0CC
:040000058000200057
:00000001FF
