:0200000480007A
:100000006F00C004732F2034930F8000630AFF0336
:10001000930F90006306FF03930FB0006302FF038A
:10002000170F0080130F0FFE63040F0067000F000F
:10003000732F203463540F006F004000136E9E53E3
:10004000171F00002320CFFD6FF09FFF732540F1A5
:100050006310050073251030634805000F00F00F92
:10006000130E100073000000130E00009702000032
:10007000938282F973905230735020307350303035
:1000800073504030970200809382C2F7638C020065
:10009000739052109302B01A739022307323203061
:1000A000E39E62F873500030970200009382420191
:1000B00073901234732540F17300203093001000C8
:1000C00093910000930E1000130E2000639AD12F1D
:1000D0009300100093911000930E2000130E300037
:1000E0006390D12F9300100093917000930E00083D
:1000F000130E40006396D12D930010009391E00001
:10010000B74E0000130E5000639CD12B93001000DB
:100110009391F0019B0E1000939EFE01130E600060
:100120006390D12B9300F0FF93910000930EF0FFAA
:10013000130E70006396D1299300F0FF9391100085
:10014000930EE0FF130E8000639CD1279300F0FF15
:1001500093917000930E00F8130E90006392D127D4
:100160009300F0FF9391E000B7CEFFFF130EA000C5
:100170006398D1259300F0FF9391F001B70E0080B2
:10018000130EB000639ED123B72021219B80101253
:1001900093910000B72E21219B8E1E12130EC000DA
:1001A0006390D123B72021219B80101293911000DE
:1001B000B74E42429B8E2E24130ED0006392D12163
:1001C000B72021219B80101293917000B71E090166
:1001D0009B8E9E90939ECE00938E0E08130EE00091
:1001E0006390D11FB72021219B8010129391E000D2
:1001F000B72E21219B8E1E12939EEE00130EF0004F
:100200006390D11DB72021219B8010129391F001A2
:10021000B72E21219B8E1E12939EFE01130E00010C
:100220006390D11B930010001301F003B3912000E1
:100230009B0EF0FF939EFE03130E20036392D119D1
:100240009300F0FF13017002B39120009B0EF0FFAA
:10025000939E7E02130E30036394D117B7202121A1
:100260009B8010121301B002B3912000B72E010041
:100270009B8E1E12939EBE02130E40036392D115F5
:100280009300100093907000930E0008130E10015D
:100290006398D01313020000930010009391700034
:1002A000138301001302120093022000E31652FE92
:1002B000930E0008130E20016314D31113020000E3
:1002C000930010009391E0001300000013830100DD
:1002D0001302120093022000E31452FEB74E0000F6
:1002E000130E3001631ED30D1302000093001000A3
:1002F0009391F0011300000013000000138301002C
:100300001302120093022000E31252FE9B0E100013
:10031000939EFE01130E40016314D30B13020000E1
:1003200093001000939170001302120093022000BA
:10033000E31852FE930E0008130E50016392D10988
:100340001302000093001000130000009391E000DE
:100350001302120093022000E31652FEB74E000073
:10036000130E6001639ED10513020000930010007C
:1003700013000000130000009391F001130212001B
:1003800093022000E31452FE9B0E1000939EFE0188
:10039000130E70016396D1039310F001930E0000C9
:1003A000130E8001639ED001930010021390400150
:1003B000930E0000130E90016314D001631CC00162
:1003C0000F00F00F63000E00131E1E00136E1E00C0
:1003D000730000000F00F00F130E100073000000F8
:1003E000731000C0000000000000000000000000CA
:1003F00000000000000000000000000000000000FD
:0404000000000000F8
:1010000000000000000000000000000000000000E0
:1010100000000000000000000000000000000000D0
:1010200000000000000000000000000000000000C0
:1010300000000000000000000000000000000000B0
:081040000000000000000000A8
:040000058000200057
:00000001FF
