:0200000480007A
:100000006F00C004732F2034930F8000630AFF0336
:10001000930F90006306FF03930FB0006302FF038A
:10002000170F0080130F0FFE63040F0067000F000F
:10003000732F203463540F006F004000136E9E53E3
:10004000171F00002320CFFD6FF09FFF732540F1A5
:100050006310050073251030634805000F00F00F92
:10006000130E100073000000130E00009702000032
:10007000938282F973905230735020307350303035
:1000800073504030970200809382C2F7638C020065
:10009000739052109302B01A739022307323203061
:1000A000E39E62F873500030970200009382420191
:1000B00073901234732540F173002030B700008034
:1000C0009BD10000B70E0080130E20006398D12949
:1000D000B70000809BD11000B70E0040130E300017
:1000E000639ED127B70000809BD17000B70E00013E
:1000F000130E40006394D127B70000809BD1E0002D
:10010000B70E0200130E5000639AD125B70000808D
:100110009B8010009BD1F001930E1000130E600025
:10012000639ED1239300F0FF9BD10000930EF0FF5C
:10013000130E70006394D1239300F0FF9BD1100045
:10014000B70E00809B8EFEFF130E80006398D121B6
:100150009300F0FF9BD17000B70E00029B8EFEFF54
:10016000130E9000639CD11F9300F0FF9BD1E00021
:10017000B70E04009B8EFEFF130EA0006390D11FEC
:100180009300F0FF9BD1F001930E1000130EB0000E
:100190006396D11DB72021219B8010129BD10000B6
:1001A000B72E21219B8E1E12130EC0006398D11B07
:1001B000B72021219B8010129BD11000B79E901078
:1001C0009B8E0E09130ED000639AD119B7202121FE
:1001D0009B8010129BD17000B74E42009B8E2E2444
:1001E000130EE000639CD117B72021219B801012D1
:1001F0009BD1E000B78E00009B8E4E48130EF0009E
:10020000639ED115B72021219B8010129BD1F00154
:10021000930E0000130E00016392D115B700008009
:100220009BD07000B70E0001130E10016398D0131D
:1002300013020000B70000809BD1700013830100FF
:100240001302120093022000E31652FEB70E0001C3
:10025000130E20016314D31113020000B7000080B5
:100260009BD1E00013000000138301001302120071
:1002700093022000E31452FEB70E0200130E300169
:10028000631ED30D13020000B70000809B80100096
:100290009BD1F00113000000130000001383010044
:1002A0001302120093022000E31052FE930E10007E
:1002B000130E40016314D30B13020000B70000803B
:1002C0009BD170001302120093022000E31852FE2B
:1002D000B70E0001130E50016392D1091302000002
:1002E000B7000080130000009BD1E0001302120051
:1002F00093022000E31652FEB70E0200130E6001B7
:10030000639ED10513020000B70000809B8010009F
:1003100013000000130000009BD1F0011302120033
:1003200093022000E31252FE930E1000130E700190
:100330006396D1039B50F001930E0000130E8001D1
:10034000639ED0019300F0011BD0C001930E00000A
:10035000130E90016314D001631CC0010F00F00F55
:1003600063000E00131E1E00136E1E0073000000BB
:100370000F00F00F130E100073000000731000C088
:040380000000000079
:1010000000000000000000000000000000000000E0
:1010100000000000000000000000000000000000D0
:1010200000000000000000000000000000000000C0
:1010300000000000000000000000000000000000B0
:081040000000000000000000A8
:040000058000200057
:00000001FF
