:0200000480007A
:100000006F00C004732F2034930F8000630AFF0336
:10001000930F90006306FF03930FB0006302FF038A
:10002000170F0080130F0FFE63040F0067000F000F
:10003000732F203463540F006F004000136E9E53E3
:10004000171F00002320CFFD6FF09FFF732540F1A5
:100050006310050073251030634805000F00F00F92
:10006000130E100073000000130E00009702000032
:10007000938282F973905230735020307350303035
:1000800073504030970200809382C2F7638C020065
:10009000739052109302B01A739022307323203061
:1000A000E39E62F873500030970200009382420191
:1000B00073901234732540F173002030B700008034
:1000C00093D10000B70E0080130E20006396D12F4D
:1000D000B700008093D110009B0E1000939E1E026B
:1000E000938EFEFF939EEE01130E30006396D12D8A
:1000F000B700008093D170009B0E1000939E1E02EB
:10010000938EFEFF939E8E01130E40006396D12BBB
:10011000B700008093D1E0009B0E1000939E1E025A
:10012000938EFEFF939E1E01130E50006396D129FD
:10013000B70000809B80100093D1F0019B0E10004F
:10014000939E1E02938EFEFF130E60006396D127CE
:100150009300F0FF93D10000930EF0FF130E700098
:10016000639CD1259300F0FF93D110009B0EF0FF0C
:10017000939EFE03938EFEFF130E8000639ED12399
:100180009300F0FF93D170009B0E1000939E9E038E
:10019000938EFEFF130E90006390D1239300F0FF27
:1001A00093D1E0009B0E1000939E2E03938EFEFFD2
:1001B000130EA0006392D1219300F0FF93D1F001C0
:1001C0009B0E1000939E1E02938EFEFF130EB00036
:1001D0006394D11FB72021219B80101293D100007E
:1001E000B72E21219B8E1E12130EC0006396D11DC7
:1001F000B72021219B80101293D11000B79E901040
:100200009B8E0E09130ED0006398D11BB7202121BD
:100210009B80101293D17000B74E42009B8E2E240B
:10022000130EE000639AD119B72021219B80101290
:1002300093D1E000B78E00009B8E4E48130EF00065
:10024000639CD117B72021219B80101293D1F0011C
:10025000930E0000130E00016390D1179B00100055
:100260009390F00193D07000B70E0001130E1001AF
:100270006394D015130200009B0010009390F001CE
:1002800093D1700013830100130212009302200027
:10029000E31452FEB70E0001130E2001631ED311AA
:1002A000130200009B0010009390F00193D1E00036
:1002B00013000000138301001302120093022000B8
:1002C000E31252FEB70E0200130E30016316D30F75
:1002D000130200009B0010009390F0019380100027
:1002E00093D1F001130000001300000013830100FC
:1002F0001302120093022000E31E52FC930E100022
:10030000130E4001631AD30B130200009B00100070
:100310009390F00193D17000130212009302200019
:10032000E31652FEB70E0001130E50016396D10979
:10033000130200009B0010009390F00113000000D6
:1003400093D1E0001302120093022000E31452FE46
:10035000B70E0200130E60016390D1071302000074
:100360009B0010009390F001938010001300000098
:100370001300000093D1F001130212009302200039
:10038000E31052FE930E1000130E70016396D1031A
:1003900093504000930E0000130E8001639ED00125
:1003A0009300100213D0A000930E0000130E9001D2
:1003B0006314D001631CC0010F00F00F63000E0036
:1003C000131E1E00136E1E00730000000F00F00FBE
:1003D000130E100073000000731000C00000000036
:1003E000000000000000000000000000000000000D
:1003F00000000000000000000000000000000000FD
:0404000000000000F8
:1010000000000000000000000000000000000000E0
:1010100000000000000000000000000000000000D0
:1010200000000000000000000000000000000000C0
:1010300000000000000000000000000000000000B0
:081040000000000000000000A8
:040000058000200057
:00000001FF
