:0200000480007A
:100000006F00C004732F2034930F8000630AFF0336
:10001000930F90006306FF03930FB0006302FF038A
:10002000170F0080130F0FFE63040F0067000F000F
:10003000732F203463540F006F004000136E9E53E3
:10004000171F00002320CFFD6FF09FFF732540F1A5
:100050006310050073251030634805000F00F00F92
:10006000130E100073000000130E00009702000032
:10007000938282F973905230735020307350303035
:1000800073504030970200809382C2F7638C020065
:10009000739052109302B01A739022307323203061
:1000A000E39E62F873500030970200009382420191
:1000B00073901234732540F17300203093000000D8
:1000C00013010000BB812002930E0000130E2000DC
:1000D0006392D13D9300100013011000BB812002F8
:1000E000930E1000130E30006396D13B9300300046
:1000F00013017000BB812002930E5001130E4000CB
:10010000639AD139930000003781FFFFBB81200241
:10011000930E0000130E5000639ED137B70000808D
:1001200013010000BB812002930E0000130E60003B
:100130006392D137B70000803781FFFFBB81200277
:10014000930E0000130E70006396D1359300D0001B
:100150001301B000BB802002930EF008130E800044
:10016000639AD0339300E0001301B0003B8120027A
:10017000930EA009130E9000631ED1319300D0009E
:10018000BB801002930E900A130EA0006394D0312E
:10019000130200009300D0001301B000BB812002C5
:1001A000138301001302120093022000E31452FE95
:1001B000930EF008130EB000631ED32D130200003F
:1001C0009300E0001301B000BB8120021300000087
:1001D000138301001302120093022000E31252FE67
:1001E000930EA009130EC0006316D32B1302000058
:1001F0009300F0001301B000BB8120021300000047
:100200001300000013830100130212009302200068
:10021000E31052FE930E500A130ED000631CD32736
:10022000130200009300D0001301B000BB81200234
:100230001302120093022000E31652FE930EF00800
:10024000130EE0006398D125130200009300E00034
:100250001301B00013000000BB8120021302120042
:1002600093022000E31452FE930EA009130EF00037
:100270006392D123130200009300F0001301B00039
:100280001300000013000000BB81200213021200C3
:1002900093022000E31252FE930E500A130E000147
:1002A000639AD11F130200009300D00013000000D6
:1002B0001301B000BB812002130212009302200040
:1002C000E31452FE930EF008130E10016394D11D37
:1002D000130200009300E000130000001301B000BF
:1002E00013000000BB8120021302120093022000C1
:1002F000E31252FE930EA009130E2001639CD11944
:10030000130200009300F00013000000130000002F
:100310001301B000BB8120021302120093022000DF
:10032000E31252FE930E500A130E30016394D1175C
:10033000130200001301B0009300D000BB81200223
:100340001302120093022000E31652FE930EF008EF
:10035000130E40016390D115130200001301B00089
:100360009300E00013000000BB8120021302120082
:1003700093022000E31452FE930EA009130E5001C5
:10038000639AD111130200001301B0009300F00032
:100390001300000013000000BB81200213021200B2
:1003A00093022000E31252FE930E500A130E6001D6
:1003B0006392D10F130200001301B000130000007C
:1003C0009300D000BB812002130212009302200090
:1003D000E31452FE930EF008130E7001639CD10BD0
:1003E000130200001301B000130000009300E000AE
:1003F00013000000BB8120021302120093022000B0
:10040000E31252FE930EA009130E80016394D109EA
:10041000130200001301B0001300000013000000DD
:100420009300F000BB81200213021200930220000F
:10043000E31252FE930E500A130E9001639CD105F5
:100440009300F0013B011002930E0000130EA00177
:100450006312D105930000023B810002930E00005D
:10046000130EB0016318D103BB000002930E00000D
:10047000130EC0016390D0039300100213012002F9
:100480003B802002930E0000130ED0016314D001B4
:10049000631CC0010F00F00F63000E00131E1E004E
:1004A000136E1E00730000000F00F00F130E1000FB
:1004B00073000000731000C0000000000000000086
:0404C0000000000038
:1010000000000000000000000000000000000000E0
:1010100000000000000000000000000000000000D0
:1010200000000000000000000000000000000000C0
:1010300000000000000000000000000000000000B0
:081040000000000000000000A8
:040000058000200057
:00000001FF
